:100000002CC047C055C044C043C042C041C040C0DE
:100010003FC03EC03DC082C73BC03AC039C038C0B7
:1000200037C036C035C0FF0000FFFFFF01FFFFFFF4
:10003000FFFF001A01FFFFFFFF00009BFEFFFFFF15
:10004000FF01FFFFFFFFFFFF2F01BE40115A3600E7
:10005000E1010000000000003D0011241FBECFE5BB
:10006000D4E0DEBFCDBF10E0A0E6B0E0E2E6F5E10F
:1000700002C005900D92AC3EB107D9F722E0ACEE7C
:10008000B0E001C01D92AF31B207E1F791D967CA64
:10009000B7CF1F920F920FB60F9211248F938BB789
:1000A0008F7B8BBF8F910F900FBE0F901F90189575
:1000B0001F920F920FB60F9211248F938BB78F77E9
:1000C0008BBF8F910F900FBE0F901F90189583FFDD
:1000D0000BC0C19A82FF0BC0C29A81FF0BC0C39AAA
:1000E00080FD0BC0C4980895C19882FDF5CFC298D9
:1000F00081FDF5CFC39880FFF5CFC49A0895809114
:10010000ED009091EE0080969093EE008093ED00CC
:1001100008952091ED003091EE002F5F3F4F309316
:10012000EE002093ED004091F00047FD0FC02F70CE
:10013000332781E090E0A0E0B0E004C0880F991F71
:10014000AA1FBB1F2A95D2F78423C1CF35FFEFCF5B
:1001500080E0BDCF2091ED003091EE002F5F3F4F4A
:100160003093EE002093ED004091F00047FD0FC06A
:100170002770332781E090E0A0E0B0E004C0880F52
:10018000991FAA1FBB1F2A95D2F78423A0CF35FF42
:10019000EFCF80E09CCF8093F00099CFBF92CF92B9
:1001A000DF92EF92FF920F931F93CF93DF93CDB720
:1001B000DEB728970FB6F894DEBF0FBECDBF2091F3
:1001C000F200222351F1B92EC82ED12C8E01075FE7
:1001D0001F4FED2CF12C8FEFE81AF80AB701660FCC
:1001E000771F660F771F660F771F48E050E0CE013C
:1001F000019687D9AC2DBB2DFE01319641E03D9192
:100200002191321340E0E017F107C9F7411107C00F
:10021000D3948091F200D816E0F2E12CF12CC701C2
:1002200028960FB6F894DEBF0FBECDBFDF91CF91F9
:100230001F910F91FF90EF90DF90CF90BF900895A6
:100240008F929F92BF92CF92DF92EF92FF920F9385
:100250001F93CF93DF93CDB7DEB728970FB6F894EF
:10026000DEBF0FBECDBFF1D384E08093F000839951
:100270000AC0A8954EDFEFECF7E03197F1F700C028
:100280000000839BF6CFE12CF12C6E0189E0C80EB3
:10029000D11CBB24BA94A8953CDFE4D381115AC089
:1002A00010E0C79ABF9AC09AF8D5BF98C798C0986F
:1002B00097FD09C0B9826A837B8318861F821E82DC
:1002C0001D821C8211E0FFEFEF1AFF0A81EDE81694
:1002D00087E0F80609F46DC0839B57C0829B55C028
:1002E0001123C9F2CE01019659DF009709F464C0C9
:1002F000F82E93E0892E912CF092F0008F2DE7DEFE
:100300000CE211E0A89505DFEFECF7E03197F1F78B
:1003100000C0000001501109A9F780E0D8DE8CE28E
:1003200091E0A895EFECF7E03197F1F700C00000FD
:100330000197B9F7F1E08F1A9108F1F688E0809300
:10034000F00083E0E82EF12CA895E3DE8BD3882320
:1003500009F4A6CF83E30FD48E010F5F1F4FC6D3DE
:10036000F80181938F01CE16DF06C9F768E0CE0150
:1003700001961BD4811194CF68E0CE01019630D450
:1003800011E0882309F48DCF8BCF81E090E028968F
:100390000FB6F894DEBF0FBECDBFDF91CF911F9196
:1003A0000F91FF90EF90DF90CF90BF909F908F9034
:1003B000089580E090E0EBCF8091F2008093F1000F
:1003C0008091F2008F5F8093F2006091F20070E004
:1003D000660F771F660F771F660F771F48E050E0A4
:1003E000CE010196A6D86091F20080E090E0AAD8F4
:1003F0008091F2007DCFFC01108240E050E061E08E
:1004000070E01DBC1CBC05C02CB53DB52033354784
:1004100010F48699F9CF2CB53DB52033354728F532
:100420001DBC1CBC05C02CB53DB52033354710F4B0
:10043000869BF9CF2CB53DB52C323140C8F42CB594
:100440003DB52D32310548F480819B01042E01C059
:10045000220F0A94EAF7282B20834F5F5F4F483022
:10046000510579F682E090E0089580E090E00895EB
:1004700081E090E008950F931F93CF93DF931F9235
:10048000CDB7DEB78C01A89580E021DE1DBC1CBC79
:100490008CB59DB54497E0F38D9A1DBC1CBC8CB502
:1004A0009DB58C389105D8F38D981DBC1CBC05C03A
:1004B0008CB59DB58033954710F4869BF9CF8CB5EC
:1004C0009DB58C32914040F081E090E00F90DF913B
:1004D000CF911F910F9108951982CE0101968BDF64
:1004E0008230910599F7E091EC00E7FD62C081E070
:1004F0008E0F8093EC008981F0E0EE0FFF1FE85033
:10050000FF4F282F30E0318320838C3C09F4EBC06F
:10051000833369F08F3059F0803F09F44CC080E09C
:1005200090E00F90DF91CF911F910F910895F80106
:10053000A801485F5F4F20E030E01DBC1CBC05C037
:100540008CB59DB58033954710F48699F9CF8CB55D
:100550009DB58033954718F7808190E0022E02C048
:10056000959587950A94E2F780FD08C08D9A1DBC89
:100570001CBC8CB59DB58397E0F38D981DBC1CBC4D
:1005800005C08CB59DB58033954710F4869BF9CF97
:100590008CB59DB58C32914008F096CF2F5F3F4FC0
:1005A0002830310551F631964E175F0721F68981C3
:1005B000B3CF8981AACFF801A801485F5F4F20E03F
:1005C00030E0808190E0022E02C0959587950A94D4
:1005D000E2F7682F61701DBC1CBC05C08CB59DB5D1
:1005E0008033954710F48699F9CF8CB59DB580334B
:1005F000954708F094CF611108C08D9A1DBC1CBCB2
:100600008CB59DB58397E0F38D981DBC1CBC05C0CF
:100610008CB59DB58033954710F4869BF9CF8CB58A
:100620009DB58C32914008F04FCF1DBC1CBC05C05D
:100630008CB59DB58033954710F48699F9CF8CB56C
:100640009DB58033954708F06ACF662341F08D9AB7
:100650001DBC1CBC8CB59DB58397E0F38D981DBC6B
:100660001CBC05C08CB59DB58033954710F4869BA6
:10067000F9CF8CB59DB58C32914008F025CF1DBCCB
:100680001CBC05C08CB59DB58033954710F4869988
:10069000F9CF8CB59DB58033954708F040CF1DBC90
:1006A0001CBC05C08CB59DB58033954710F4869B66
:1006B000F9CF8CB59DB58C32914008F005CFACB523
:1006C000BDB581E09D9708F080E0681328CF2F5FCB
:1006D0003F4F2830310509F074CF31964E175F0730
:1006E00009F06DCF1CCFCE01019685DE82309105D9
:1006F00009F0ECCEE091EC00E7FD0FC081E08E0F39
:100700008093EC008981F0E0EE0FFF1FE850FF4F6F
:10071000282F30E031832083FBCE8981F9CECF931F
:10072000DF93EC01CE01A7DE892BE1F7DF91CF91BA
:100730000895EF92FF920F931F93CF93DF93EC01F5
:1007400000E010E080E3E82E85E7F82EA8951DBCB8
:100750001CBC0BC08CB59DB58033954740F4A89563
:10076000D8DC839B24C0829B22C08699F3CF8CB5B2
:100770009DB58033954790F41DBC1CBC05C08CB55D
:100780009DB58133954718F5869BF9CF8CB59DB5FE
:100790008D32914098F401E010E0D8CF0F5F1F4FE9
:1007A0000436110599F6CE0166DE892BE1F7DF915B
:1007B000CF911F910F91FF90EF900895CE015BDED6
:1007C000892B49F3CE0157DE892BC1F7E4CFFDBC5D
:1007D000ECBCDACFEF92FF920F931F93CF93DF938E
:1007E000CDB7DEB728970FB6F894DEBF0FBECDBFEA
:1007F0007E0189E0E80EF11C8091F1009091F200F9
:10080000891708F06FC08F5F8093F00060DC8399D8
:100810000AC0A8959FDC8FEC97E00197F1F700C024
:100820000000839BF6CF8091EF00882309F485C0F8
:10083000E091F100F0E0EE0FFF1FE05AFF4F019052
:10084000F081E02DDE01119684918D933196AE15E5
:10085000BF05D1F7FAD000E010E089818F3F89F021
:100860008E3F39F10230110574F5CE01019661DF3A
:10087000839B3CC0829B5EC00F5F1F4F89818F3F6F
:1008800079F7093E93E01907F1F0A8958091ED0002
:100890009091EE0080969093EE008093ED0039DC0D
:1008A0008B8190E0982F88272A81820F911DBAD1E1
:1008B000DFCF093E83E0180731F0A8952ADCCE018E
:1008C0000296F3D4D5CF80E090E028960FB6F89446
:1008D000DEBF0FBECDBFDF91CF911F910F91FF9073
:1008E000EF9008951092F10081E08ECF8091F10099
:1008F00091E0980F9093F1002091F200921770F51B
:100900008E5F8093F000E3DB00E010E0839974CF0A
:10091000A89520DC8FEC97E00197F1F700C000006C
:100920000F5F1F4F083E93E0190784F38091EF009B
:100930008111ECCF81E090E0C8CF6091F10070E0D0
:100940006F5F7F4F660F771F660F771F660F771FEA
:1009500048E050E0CE010196D4D57CCF1092F10052
:1009600081E0CFCF8091F200811134CF81E090E01F
:1009700008956BD080E0ABDB1AB890989198889A74
:10098000899AC698BF98C798C09885B7806285BF76
:1009900085B78F7A85BF8BB7806C8BBF81B580613F
:1009A00081BD81B5877F81BD839B09C0829B07C0C4
:1009B00085B7806885BF889585B78F7785BF08958F
:1009C00089E189B910BC80E98AB980B5806480BDAD
:1009D00008955D9BFECF8CB90895982F92959F70D6
:1009E0009A3070F4905D8F708A3040F4805D5D9B2A
:1009F000FECF9CB95D9BFECF8CB90895895CF7CF83
:100A0000995CF1CFFC019081992339F031965D9B7F
:100A1000FECF9CB991919111FACF089541155105DE
:100A20006105710551F0FC01480F591F81915D9BD3
:100A3000FECF8CB9E417F507C9F7089581B38F7914
:100A400081BB82B38F7982BB08958EB582608EBDE3
:100A50008EB58A7F8EBD81B38F7981BB82B38F794A
:100A600082BB089581B38F7981BB82B38F7982BBBA
:100A70008D9A25E030E01DBC1CBC8CB59DB584363C
:100A80009105D8F321503109B1F78D9844EF51E029
:100A900080E0869B81E01DBC1CBC2CB53DB5232BA2
:100AA000E1F341505109A9F7089581B38F7981BBD2
:100AB00082B38F7982BB8D9A1DBC1CBC8CB59DB551
:100AC0000597E0F38D981DBC1CBC8CB59DB50597B2
:100AD000E0F31DBC1CBC81E0869B80E02CB53DB5DD
:100AE00025363105C8F31DBC1CBC0895EF92FF925A
:100AF0001F93CF93DF93C0E0D0E010E0EE24E394A7
:100B0000F12CD3DF882339F0C7010C2E01C0880FE8
:100B10000A94EAF7182B2196C830D10591F7812F56
:100B2000DF91CF911F91FF90EF90089591B39F793E
:100B300091BB92B39F7992BB8D9A1DBC1CBC88233C
:100B400069F08CB59DB50A97E0F38D981DBC1CBC6F
:100B50008CB59DB58B349105D8F308958CB59DB5B2
:100B60008B349105D8F38D981DBC1CBC8CB59DB5FC
:100B70000A97E0F308950F931F93CF93DF93082F05
:100B800010E0C0E0D0E0C8010C2E02C0959587951A
:100B90000A94E2F78170CADF2196C830D10599F72F
:100BA000DF91CF911F910F9108956623B9F0FC0159
:100BB000615070E06F5F7F4F680F791F80E04CE8F5
:100BC000219198E0382F3227869530FD842726958D
:100BD0009150C1F7E617F70799F7089580E0089557
:100BE000662399F0FC012081211111C031966150DA
:100BF000262F30E02F5F3F4F280F391F03C0919100
:100C0000911105C0E217F307D1F781E0089580E064
:100C10000895869B06C082B3806682BB81B38066DE
:100C200081BB0895CF92DF92EF92FF920F931F93B3
:100C3000CF93DF938C0120E030E047E050E060E0AC
:100C400070E0DB01CA01022E04C0B695A795979506
:100C500087950A94D2F78D9A1DBC1CBC80FF5AC0A0
:100C60008CB59DB589369105D8F38D981DBC1CBCFB
:100C70008CB59DB58497E0F32F5F3F4F243031054D
:100C800001F7C0E0D0E0C12CD12C7601C39437DA53
:100C900040DAC8010C2E02C0969587950A94E2F7B7
:100CA00083709927B701A60104C0440F551F661F22
:100CB000771F8A95D2F720E030E0DB01CA01022ECF
:100CC00004C0B695A795979587950A94D2F78D9A03
:100CD0001DBC1CBC80FF31C08CB59DB5893691050B
:100CE000D8F38D981DBC1CBC8CB59DB58497E0F3E2
:100CF0002F5F3F4F2430310501F72296C031D105D7
:100D000031F6DF91CF911F910F91FF90EF90DF901F
:100D1000CF9008958CB59DB5C597E0F38D981DBC17
:100D20001CBC8CB59DB580359105D8F32F5F3F4F26
:100D30002430310509F085CFA4CF8CB59DB5C5977A
:100D4000E0F38D981DBC1CBC8CB59DB5803591051C
:100D5000D8F32F5F3F4F2430310509F0AECFCDCF10
:100D60001F93CF93DF93CDB7DEB7C85CD1090FB621
:100D7000F894DEBF0FBECDBFDE011196FD0120E06D
:100D800030E01DBC1CBC05C08CB59DB581159440E0
:100D900010F44599F9CF8CB59DB581159440D0F4E8
:100DA0001DBC1CBC05C08CB59DB58115944010F4CC
:100DB000459BF9CF8CB59DB58115944058F4C90178
:100DC00001964CB55DB5419351938436910581F000
:100DD0009C01D7CF6FEF7FEFCB01C853DF4F0FB62A
:100DE000F894DEBF0FBECDBFDF91CF911F91089564
:100DF00023523109121613066CF781E090E005C00A
:100E0000AC010196421753072CF74D915D91473481
:100E10005105B0F3AC016D917C9111976734710568
:100E200080F312966D917C9113976734710548F3A6
:100E300014966D917C9115976634710510F79C019D
:100E40002D5F3F4F220F331F81E090E08C0F9D1FDD
:100E5000280F391FA0E0B0E060E070E01A2FF90120
:100E600080E090E0419151914734510548F0AC0148
:100E7000012E02C0440F551F0A94E2F7642B752B14
:100E800001968430910571F7285F3F4F1296A0318B
:100E9000B10521F780E090E0A0CF8F929F92AF92B2
:100EA000BF92CF92DF92EF92FF92CF93DF93C0E099
:100EB000D0E0812C912C5401C12CD12C760109C099
:100EC000812C912C540121966B017C01CA30D105F3
:100ED000B1F046DF97FDF4CF6C157D058E059F05BB
:100EE00079F72FEF821A920AA20AB20A23E0821639
:100EF0009104A104B1043CF3B601C70104C06FEF33
:100F00007FEF8FEF9FEFDF91CF91FF90EF90DF901A
:100F1000CF90BF90AF909F908F9008951F920F92A7
:100F20000FB60F9211242F933F934F936F937F939C
:100F30008F939F93EF93FF9341E05F9B26C08CB10B
:100F40008D3089F18A3079F1803209F467C090914F
:100F5000F801911132C02091F6003091F7002F5F17
:100F60003F4F2E31310548F72091F6003091F700C0
:100F7000B9016F5F7F4F7093F7006093F600F9013E
:100F8000EF5FFD4F80835F99DACFFF91EF919F91E3
:100F90008F917F916F914F913F912F910F900FBE45
:100FA0000F901F901895E091F600F091F700EF5F19
:100FB000FD4F10824093F300C0CF90ED980F9A3010
:100FC00038F09FEB980F963008F0B7CF99EC980F58
:100FD0002091F4003091F500203131050CF0ADCFB7
:100FE0002091F4003091F50020FF23C02091F400FF
:100FF0003091F50037FD2CC035952795F901E75064
:10100000FE4F8081982B90838091F4009091F500A1
:1010100001969093F5008093F4008FCF8091F801B2
:10102000811104C01092F5001092F4004093F80171
:1010300084CF2091F4003091F50037FD0CC0359538
:1010400027959295907FF901E750FE4F9083DCCF72
:101050002F5F3F4FD1CF2F5F3F4FF1CF6F927F92E6
:101060008F929F92AF92BF92CF92DF92EF92FF92B8
:101070000F931F93CF93DF93CDB7DEB728970FB6AB
:10108000F894DEBF0FBECDBF1092F7001092F600AD
:101090001092F8011092F30080E090E0FC01E7501C
:1010A000FE4F1082019688309105C1F780E090E0F4
:1010B00038D2682E85DC77247394CE0109967C01A2
:1010C00082998EC000E010E0A895872D002E01C007
:1010D000880F0A94EAF7FBD79FE7E8E3F1E0915025
:1010E000E040F040E1F700C000008091F300811182
:1010F00006C00F5F1F4F0630110531F7E1CF809119
:10110000F6009091F700181619060CF055C0539A86
:101110008FE19EE40197F1F700C000006091780034
:101120007091790081E092E0E3D1892B09F46DC0E0
:10113000609176007091770081E092E0D9D1892B9F
:1011400009F4ABC0609174007091750081E092E089
:10115000CFD1892B09F45DC060917200709173004A
:1011600081E092E0C5D1892B09F48EC060917000B6
:101170007091710081E092E0BBD1892B09F080C0B1
:101180006394662D70E0660F771F660F771F660FFA
:10119000771F48E050E089EF91E0CBD1662D80E0E9
:1011A00090E0D0D180EB90E02DDC8FE19EE40197C0
:1011B000F1F700C0000053981092F7001092F6006B
:1011C0001092F8011092F30080E090E0FC01E750EB
:1011D000FE4F1082019688309105C1F7829B72CF35
:1011E00028960FB6F894DEBF0FBECDBFDF91CF912A
:1011F0001F910F91FF90EF90DF90CF90BF90AF9035
:101200009F908F907F906F9008958AE790E0FADB2F
:10121000CCCF80EA90E0F6DB862DDFDB662061F143
:10122000862C912C9FEF891A990A98E0A92EB12C4F
:10123000CC24C394D12C88EA90E0E4DB8C2DCDDB68
:1012400086EA90E0DFDB48E050E0B501CE01019690
:1012500058D18E010F5F1F4FF80181918F01BDDBC7
:101260000E151F05C9F7FFEFCF1ADF0A28E0A20EFF
:10127000B11C8C149D04F9F685EB90E0C3DB95CF8F
:101280008AEB90E0BFDB91CF60E080E090E05AD144
:1012900080EB90E0B7DB612C88CF8AE990E0B2DB8D
:1012A000F89481B5886081BDFFCF0F931F93CF93D2
:1012B000DF938D9A1DBC1CBC2CB53DB5263931057C
:1012C000D8F38D981DBC1CBC2CB53DB5223331051F
:1012D000D8F38D9A1DBC1CBC2CB53DB52436310508
:1012E000D8F38D981DBC1CBC2CB53DB524363105FA
:1012F000D8F38D9A1DBC1CBC2CB53DB522333105ED
:10130000D8F38D981DBC1CBC2CB53DB522333105DE
:10131000D8F38D9A1DBC1CBC2CB53DB524363105C7
:10132000D8F38D988C01EC012496F3D6F801419105
:101330008F0150E060E070E020E030E0DB01CA01A6
:10134000022E04C0B695A795979587950A94D2F773
:101350008D981DBC1CBC80FF19C08CB59DB5843612
:101360009105D8F38D9A1DBC1CBC8CB59DB5C29758
:10137000E0F32F5F3F4F2830310501F7C017D10749
:10138000A1F6DF91CF911F910F9108958CB59DB576
:10139000C297E0F38D9A1DBC1CBC8CB59DB58436FC
:1013A0009105D8F32F5F3F4F2830310539F6E6CF4E
:1013B0001AB8B99ABA9ABB9ABC9A8B98939A8A9897
:1013C000929ABF98C798B89AC098BE9AC6983DDBC3
:1013D000A49AAC98A59AAD988C9A94987894FF2486
:1013E000F394BB24B39498E0E92E81B5806181BD6C
:1013F00081B5886081BD81B5806181BD81B587601F
:1014000081BD1092EF00C12CD12C00E010E08F2D97
:10141000002E01C0880F0A94EAF78093F000CEE115
:10142000D0E0A89576D68FEC97E00197F1F700C051
:1014300000002197B1F70F5F1F4F0330110539F7F7
:101440009FEFC91AD90A85E0C816D10431F1839BF0
:10145000DCCF8091EF00811148C080E090E061D046
:101460008093F2008091F200803430F01092F2000C
:1014700003C0E6D6892B51F0829B35C0C69A809175
:10148000F2008823B1F3A6D9892B99F78091EF0058
:1014900081111092F1006DDAA8CF1092F00080E077
:1014A00016D66091EC0081E090E04CD04091EC00C9
:1014B00050E0440F551F60E071E088EF90E039D0B4
:1014C0001092EC00C4EFD1E0A89523D68FEC97E002
:1014D0000197F1F700C000002197B1F7B092EF003B
:1014E0001092F100B4CFBADDD1CFE092F200BACFC2
:1014F000FB01DC018D91019080190110D9F3990B4A
:101500000895DC01CB01FC01E199FECF06C0FFBBD1
:10151000EEBBE09A31960DB20D9241505040B8F7B3
:101520000895E199FECF9FBB8EBBE09A99278DB3BA
:101530000895DC01CB0102C02D9105D041505040EF
:10154000D8F70895262FE199FECF9FBB8EBB2DBB08
:101550000FB6F894E29AE19A0FBE01960895F894B6
:02156000FFCFBB
:101562005100490041003C0034002C0029002600B3
:10157200CE00D400DA00DF00E60069427574746FB1
:101582006E204D756C74696B657920627920436CAD
:1015920075737465720D0A3E20004F4B2E0D0A00C2
:1015A200436F756E743A20000D0A4B65793A20003C
:1015B200446F6E652E0D0A3E2000556E6B6E6F777E
:1015C2006E20636F6D6D616E640D0A3E200077724E
:1015D20069746500657261736500726561640072A9
:0C15E20065626F6F74006E616D65000043
:00000001FF
